:100000000C942A000C943F000C943F000C943F0089
:100010000C943F000C943F000C943F000C943F0064
:100020000C943F000C943F000C943F000C943F0054
:100030000C943F000C943F000C943F000C943F0044
:100040000C943F000C943F000C943F000C943F0034
:100050000C943F0011241FBECFE5D8E0DEBFCDBF1A
:1000600010E0A0E6B0E0E2E4F8E002C005900D92F6
:10007000A83EB107D9F70E948D030C941F040C947D
:1000800000001FBC1EBC1DBC1CBC84E288BF8EB51A
:1000900080648EBD8EB582608EBD08951DBC1CBC73
:1000A0000895813019F48EB5806402C08EB58F7BBF
:1000B0008EBD089588B7829586958170089580E2F7
:1000C00088BF089526B537B5C901089588B78695C4
:1000D00086958170089584E088BF0895813009F184
:1000E000813030F08230B1F1833009F064C04BC010
:1000F000413059F42AB381E090E002C0880F991F83
:100100006A95E2F7282B2ABB08952AB381E090E094
:1001100002C0880F991F6A95E2F7809582238ABBF7
:100120000895413059F427B381E090E002C0880F70
:10013000991F6A95E2F7282B27BB089527B381E022
:1001400090E002C0880F991F6A95E2F7809582239C
:1001500087BB0895413059F424B381E090E002C098
:10016000880F991F6A95E2F7282B24BB089524B3C2
:1001700081E090E002C0880F991F6A95E2F78095B0
:10018000822384BB0895413059F421B381E090E08B
:1001900002C0880F991F6A95E2F7282B21BB0895AA
:1001A00021B381E090E002C0880F991F6A95E2F7C1
:1001B0008095822381BB0895813009F1813030F030
:1001C0008230B1F1833009F064C04BC0413059F442
:1001D0002BB381E090E002C0880F991F6A95E2F787
:1001E000282B2BBB08952BB381E090E002C0880F31
:1001F000991F6A95E2F7809582238BBB0895413061
:1002000059F428B381E090E002C0880F991F6A95E5
:10021000E2F7282B28BB089528B381E090E002C0C4
:10022000880F991F6A95E2F78095822388BB08950D
:10023000413059F425B381E090E002C0880F991F46
:100240006A95E2F7282B25BB089525B381E090E05D
:1002500002C0880F991F6A95E2F78095822385BBBB
:100260000895413059F422B381E090E002C0880F34
:10027000991F6A95E2F7282B22BB089522B381E0EB
:1002800090E002C0880F991F6A95E2F7809582235B
:1002900082BB0895813051F0813030F0823041F0DE
:1002A000833079F080E0089589B303C086B301C03C
:1002B00083B390E002C0959587956A95E2F78170C7
:1002C000089580B390E002C0959587956A95E2F70E
:1002D00081700895813049F0813028F0823039F002
:1002E000833041F406C06ABB089567BB089564BBC0
:1002F000089561BB0895813049F0813028F0823043
:1003000039F0833041F406C06BBB089568BB089593
:1003100065BB089562BB0895813051F0813030F0A3
:10032000823041F0833041F080E0089589B3089530
:1003300086B3089583B3089580B30895CF93DF9370
:1003400081E00E9451000E945F000E946B000E94A9
:100350004E0082E060E040E00E94DC0085E08A958B
:10036000F1F782E060E041E00E94DC008AE18A95DA
:10037000F1F782E060E040E00E94DC0004C00E94EF
:100380006600882389F40E945A008823C1F30E94E2
:100390006200EC0180E00E9451000E945F0009C0F1
:1003A0000E946600882329F00E946B0020E030E064
:1003B0000FC00E945A00882399F30E9462008C1794
:1003C0009D078C1B9D0B6AE370E00E940B049B0150
:1003D000C901DF91CF91089582E060E041E00E9481
:1003E0006E0083E066E040E00E946E0082E060E024
:1003F00040E00E94DC000E944100089581E062E03C
:1004000040E00E94DC0081E063E040E00E94DC000C
:1004100081E060E040E00E94DC0081E061E040E0DB
:100420000E94DC00089581E060E041E00E94DC0071
:1004300081E061E040E00E94DC0081E062E040E0B9
:100440000E94DC0081E063E040E00E94DC0008954F
:1004500081E062E041E00E94DC0081E063E040E096
:100460000E94DC0081E060E040E00E94DC0081E06E
:1004700061E040E00E94DC00089581E062E040E03D
:100480000E94DC0081E063E041E00E94DC0081E04A
:1004900060E040E00E94DC0081E061E041E00E9419
:1004A000DC00089581E062E041E00E94DC0081E030
:1004B00063E040E00E94DC0081E060E041E00E94F7
:1004C000DC0081E061E040E00E94DC00089581E012
:1004D00062E041E00E946E0081E063E041E00E9442
:1004E0006E0081E060E041E00E946E0081E061E02A
:1004F00041E00E946E000E94FE0108951F93182F94
:10050000482F417080E062E00E94DC00412F469558
:10051000417080E063E00E94DC0016951695412F43
:10052000417080E064E00E94DC001695117080E06C
:1005300065E0412F0E94DC0080E061E041E00E9424
:10054000DC0082E08A95F1F780E061E040E00E9403
:10055000DC0088EC90E00197F1F71F9108951F935C
:10056000182F80E060E041E00E94DC00812F82953E
:100570008F700E947E02812F8F700E947E021F91D9
:100580000895CF93DF93EC0103C00E94AF02219640
:1005900088818823D1F7DF91CF9108951F93182F79
:1005A00080E060E040E00E94DC00812F82958F7047
:1005B0000E947E02812F8F700E947E021F910895FB
:1005C000882319F4862F805802C0862F80540E94F9
:1005D000CE02089581E00E94CE0280EA9FE001975A
:1005E000F1F7089580E060E041E00E946E0080E055
:1005F00061E041E00E946E0080E062E041E00E9424
:100600006E0080E063E041E00E946E0080E064E004
:1006100041E00E946E0080E065E041E00E946E00D3
:1006200080E991E028EC30E0F9013197F1F701978A
:10063000D9F780E060E040E00E94DC0083E00E94A7
:100640007E0280E197E20197F1F783E00E947E024B
:100650008CE291E00197F1F783E00E947E0282E054
:100660000E947E0288E20E94CE028CE00E94CE02AE
:1006700086E00E94CE0281E00E94CE0280EA9FE0E6
:100680000197F1F7089582E066E040E00E94DC0007
:10069000089582E066E041E00E94DC00089582E077
:1006A00066E041E00E946E0082E066E040E00E9469
:1006B000DC000895682F83E00E944A0190E08823BF
:1006C00009F491E0892F089583E060E040E00E9402
:1006D0006E0083E061E040E00E946E0083E062E033
:1006E00040E00E946E0083E063E040E00E946E0004
:1006F00083E060E041E00E94DC0083E061E041E0F3
:100700000E94DC0083E062E041E00E94DC0083E0C4
:1007100063E041E00E94DC000895CF93DF930E94E4
:1007200067020E9464030E944F030E94F2020E942B
:10073000EC010E94FE010E944303C8ECD0E00E943D
:100740009E01449798F40E94FE010E94490380E0B4
:1007500060E00E94E00280E690E00E94C10281E039
:1007600060E00E94E00281E790E04AC00E944303FB
:1007700080E060E00E94E00282E890E00E94C10216
:1007800080E00E945A03882349F00E94520281E0CF
:1007900060E00E94E00283E990E032C081E00E94C4
:1007A0005A03882349F00E943D0281E060E00E94E4
:1007B000E00284EA90E024C082E00E945A03882389
:1007C00049F00E94280281E060E00E94E00285EB8F
:1007D00090E016C083E00E945A03882349F00E94EB
:1007E000130281E060E00E94E00286EC90E008C025
:1007F0000E94FE0181E060E00E94E00287ED90E04F
:100800000E94C10288E592E0FE013197F1F701975D
:1008100009F495CFF9CFAA1BBB1B51E107C0AA1F52
:10082000BB1FA617B70710F0A61BB70B881F991F91
:100830005A95A9F780959095BC01CD010895F8943B
:02084000FFCFE8
:10084200554E534146452057415920202020202013
:100852000053544F502020202020202020202020F0
:100862002000534146452057415920202020202076
:10087200202000464F525741524420202020202061
:10088200202020004241434B2020202020202020F5
:1008920020202020004C45465420202020202020CB
:1008A2002020202020005249474854202020202088
:1008B2002020202020200020202020202020202056
:0808C20020202020202020004E
:00000001FF
